{
  "_format": "hh-sol-artifact-1",
  "contractName": "Criptdle",
  "sourceName": "contracts/Criptdle.sol",
  "abi": [
    {
      "inputs": [],
      "stateMutability": "nonpayable",
      "type": "constructor"
    },
    {
      "inputs": [
        {
          "internalType": "string",
          "name": "_word",
          "type": "string"
        }
      ],
      "name": "createWord",
      "outputs": [],
      "stateMutability": "nonpayable",
      "type": "function"
    },
    {
      "inputs": [],
      "name": "readWords",
      "outputs": [
        {
          "internalType": "string[]",
          "name": "",
          "type": "string[]"
        }
      ],
      "stateMutability": "view",
      "type": "function"
    }
  ],
  "bytecode": "0x608060405234801561001057600080fd5b506105b2806100206000396000f3fe608060405234801561001057600080fd5b50600436106100365760003560e01c8063017f72231461003b5780630dcd66ef14610057575b600080fd5b61005560048036038101906100509190610298565b610075565b005b61005f6100b4565b60405161006c919061039b565b60405180910390f35b6000819080600181540180825580915050600190039060005260206000200160009091909190915090805190602001906100b092919061018d565b5050565b60606000805480602002602001604051908101604052809291908181526020016000905b828210156101845783829060005260206000200180546100f7906104aa565b80601f0160208091040260200160405190810160405280929190818152602001828054610123906104aa565b80156101705780601f1061014557610100808354040283529160200191610170565b820191906000526020600020905b81548152906001019060200180831161015357829003601f168201915b5050505050815260200190600101906100d8565b50505050905090565b828054610199906104aa565b90600052602060002090601f0160209004810192826101bb5760008555610202565b82601f106101d457805160ff1916838001178555610202565b82800160010185558215610202579182015b828111156102015782518255916020019190600101906101e6565b5b50905061020f9190610213565b5090565b5b8082111561022c576000816000905550600101610214565b5090565b600061024361023e846103e2565b6103bd565b90508281526020810184848401111561025b57600080fd5b610266848285610468565b509392505050565b600082601f83011261027f57600080fd5b813561028f848260208601610230565b91505092915050565b6000602082840312156102aa57600080fd5b600082013567ffffffffffffffff8111156102c457600080fd5b6102d08482850161026e565b91505092915050565b60006102e58383610362565b905092915050565b60006102f882610423565b6103028185610446565b93508360208202850161031485610413565b8060005b85811015610350578484038952815161033185826102d9565b945061033c83610439565b925060208a01995050600181019050610318565b50829750879550505050505092915050565b600061036d8261042e565b6103778185610457565b9350610387818560208601610477565b6103908161056b565b840191505092915050565b600060208201905081810360008301526103b581846102ed565b905092915050565b60006103c76103d8565b90506103d382826104dc565b919050565b6000604051905090565b600067ffffffffffffffff8211156103fd576103fc61053c565b5b6104068261056b565b9050602081019050919050565b6000819050602082019050919050565b600081519050919050565b600081519050919050565b6000602082019050919050565b600082825260208201905092915050565b600082825260208201905092915050565b82818337600083830152505050565b60005b8381101561049557808201518184015260208101905061047a565b838111156104a4576000848401525b50505050565b600060028204905060018216806104c257607f821691505b602082108114156104d6576104d561050d565b5b50919050565b6104e58261056b565b810181811067ffffffffffffffff821117156105045761050361053c565b5b80604052505050565b7f4e487b7100000000000000000000000000000000000000000000000000000000600052602260045260246000fd5b7f4e487b7100000000000000000000000000000000000000000000000000000000600052604160045260246000fd5b6000601f19601f830116905091905056fea2646970667358221220c4ab1c337ba9b51eb29c5a181cd8e9c908602036245f0312271ff79048deb52d64736f6c63430008040033",
  "linkReferences": {},
  "deployedLinkReferences": {}
}