{
  "_format": "hh-sol-artifact-1",
  "contractName": "Criptdle",
  "sourceName": "contracts/Criptdle.sol",
  "abi": [
    {
      "inputs": [],
      "stateMutability": "nonpayable",
      "type": "constructor"
    },
    {
      "inputs": [
        {
          "internalType": "string",
          "name": "_word",
          "type": "string"
        }
      ],
      "name": "createWord",
      "outputs": [],
      "stateMutability": "nonpayable",
      "type": "function"
    },
    {
      "inputs": [],
      "name": "getWord",
      "outputs": [
        {
          "internalType": "string",
          "name": "",
          "type": "string"
        }
      ],
      "stateMutability": "view",
      "type": "function"
    },
    {
      "inputs": [
        {
          "internalType": "string",
          "name": "_word",
          "type": "string"
        }
      ],
      "name": "isUsed",
      "outputs": [
        {
          "internalType": "bool",
          "name": "",
          "type": "bool"
        }
      ],
      "stateMutability": "view",
      "type": "function"
    },
    {
      "inputs": [],
      "name": "owner",
      "outputs": [
        {
          "internalType": "address",
          "name": "",
          "type": "address"
        }
      ],
      "stateMutability": "view",
      "type": "function"
    },
    {
      "inputs": [],
      "name": "readWords",
      "outputs": [
        {
          "internalType": "string[]",
          "name": "",
          "type": "string[]"
        }
      ],
      "stateMutability": "view",
      "type": "function"
    },
    {
      "inputs": [
        {
          "internalType": "string",
          "name": "_word",
          "type": "string"
        }
      ],
      "name": "useWord",
      "outputs": [],
      "stateMutability": "nonpayable",
      "type": "function"
    },
    {
      "inputs": [
        {
          "internalType": "string",
          "name": "",
          "type": "string"
        }
      ],
      "name": "words",
      "outputs": [
        {
          "internalType": "string",
          "name": "text",
          "type": "string"
        },
        {
          "internalType": "bool",
          "name": "used",
          "type": "bool"
        }
      ],
      "stateMutability": "view",
      "type": "function"
    }
  ],
  "bytecode": "0x60806040523480156200001157600080fd5b50336000806101000a81548173ffffffffffffffffffffffffffffffffffffffff021916908373ffffffffffffffffffffffffffffffffffffffff160217905550620000a2604051806060016040528060228152602001620010ec6022913960008054906101000a900473ffffffffffffffffffffffffffffffffffffffff16620000a860201b620006b11760201c565b62000294565b6200014a8282604051602401620000c1929190620001c9565b6040516020818303038152906040527f319af333000000000000000000000000000000000000000000000000000000007bffffffffffffffffffffffffffffffffffffffffffffffffffffffff19166020820180517bffffffffffffffffffffffffffffffffffffffffffffffffffffffff83818316178352505050506200014e60201b60201c565b5050565b60008151905060006a636f6e736f6c652e6c6f679050602083016000808483855afa5050505050565b620001828162000219565b82525050565b60006200019582620001fd565b620001a1818562000208565b9350620001b38185602086016200024d565b620001be8162000283565b840191505092915050565b60006040820190508181036000830152620001e5818562000188565b9050620001f6602083018462000177565b9392505050565b600081519050919050565b600082825260208201905092915050565b600062000226826200022d565b9050919050565b600073ffffffffffffffffffffffffffffffffffffffff82169050919050565b60005b838110156200026d57808201518184015260208101905062000250565b838111156200027d576000848401525b50505050565b6000601f19601f8301169050919050565b610e4880620002a46000396000f3fe608060405234801561001057600080fd5b506004361061007d5760003560e01c80637f4536281161005b5780637f453628146100ec5780638da5cb5b146101085780639b7bfee514610126578063ed40a8c8146101575761007d565b8063017f7223146100825780630dcd66ef1461009e578063578d714b146100bc575b600080fd5b61009c60048036038101906100979190610881565b610175565b005b6100a66102ba565b6040516100b39190610a61565b60405180910390f35b6100d660048036038101906100d19190610881565b610393565b6040516100e39190610a83565b60405180910390f35b61010660048036038101906101019190610881565b6103cb565b005b6101106104d4565b60405161011d9190610a46565b60405180910390f35b610140600480360381019061013b9190610881565b6104f8565b60405161014e929190610af0565b60405180910390f35b61015f6105c7565b60405161016c9190610a9e565b60405180910390f35b3360008054906101000a900473ffffffffffffffffffffffffffffffffffffffff1673ffffffffffffffffffffffffffffffffffffffff168173ffffffffffffffffffffffffffffffffffffffff1614610204576040517f08c379a00000000000000000000000000000000000000000000000000000000081526004016101fb90610b20565b60405180910390fd5b60405180604001604052808381526020016000151581525060028360405161022c9190610a2f565b90815260200160405180910390206000820151816000019080519060200190610256929190610776565b5060208201518160010160006101000a81548160ff0219169083151502179055509050506001829080600181540180825580915050600190039060005260206000200160009091909190915090805190602001906102b5929190610776565b505050565b60606001805480602002602001604051908101604052809291908181526020016000905b8282101561038a5783829060005260206000200180546102fd90610c91565b80601f016020809104026020016040519081016040528092919081815260200182805461032990610c91565b80156103765780601f1061034b57610100808354040283529160200191610376565b820191906000526020600020905b81548152906001019060200180831161035957829003601f168201915b5050505050815260200190600101906102de565b50505050905090565b60006002826040516103a59190610a2f565b908152602001604051809103902060010160009054906101000a900460ff169050919050565b3360008054906101000a900473ffffffffffffffffffffffffffffffffffffffff1673ffffffffffffffffffffffffffffffffffffffff168173ffffffffffffffffffffffffffffffffffffffff161461045a576040517f08c379a000000000000000000000000000000000000000000000000000000000815260040161045190610b20565b60405180910390fd5b6040518060400160405280838152602001600115158152506002836040516104829190610a2f565b908152602001604051809103902060008201518160000190805190602001906104ac929190610776565b5060208201518160010160006101000a81548160ff0219169083151502179055509050505050565b60008054906101000a900473ffffffffffffffffffffffffffffffffffffffff1681565b60028180516020810182018051848252602083016020850120818352809550505050505060009150905080600001805461053190610c91565b80601f016020809104026020016040519081016040528092919081815260200182805461055d90610c91565b80156105aa5780601f1061057f576101008083540402835291602001916105aa565b820191906000526020600020905b81548152906001019060200180831161058d57829003601f168201915b5050505050908060010160009054906101000a900460ff16905082565b60606000600180549050426105dc9190610cf4565b905060018181548110610618577f4e487b7100000000000000000000000000000000000000000000000000000000600052603260045260246000fd5b90600052602060002001805461062d90610c91565b80601f016020809104026020016040519081016040528092919081815260200182805461065990610c91565b80156106a65780601f1061067b576101008083540402835291602001916106a6565b820191906000526020600020905b81548152906001019060200180831161068957829003601f168201915b505050505091505090565b61074982826040516024016106c7929190610ac0565b6040516020818303038152906040527f319af333000000000000000000000000000000000000000000000000000000007bffffffffffffffffffffffffffffffffffffffffffffffffffffffff19166020820180517bffffffffffffffffffffffffffffffffffffffffffffffffffffffff838183161783525050505061074d565b5050565b60008151905060006a636f6e736f6c652e6c6f679050602083016000808483855afa5050505050565b82805461078290610c91565b90600052602060002090601f0160209004810192826107a457600085556107eb565b82601f106107bd57805160ff19168380011785556107eb565b828001600101855582156107eb579182015b828111156107ea5782518255916020019190600101906107cf565b5b5090506107f891906107fc565b5090565b5b808211156108155760008160009055506001016107fd565b5090565b600061082c61082784610b65565b610b40565b90508281526020810184848401111561084457600080fd5b61084f848285610c4f565b509392505050565b600082601f83011261086857600080fd5b8135610878848260208601610819565b91505092915050565b60006020828403121561089357600080fd5b600082013567ffffffffffffffff8111156108ad57600080fd5b6108b984828501610857565b91505092915050565b60006108ce8383610969565b905092915050565b6108df81610c07565b82525050565b60006108f082610ba6565b6108fa8185610bc9565b93508360208202850161090c85610b96565b8060005b85811015610948578484038952815161092985826108c2565b945061093483610bbc565b925060208a01995050600181019050610910565b50829750879550505050505092915050565b61096381610c19565b82525050565b600061097482610bb1565b61097e8185610bda565b935061098e818560208601610c5e565b61099781610db2565b840191505092915050565b60006109ad82610bb1565b6109b78185610beb565b93506109c7818560208601610c5e565b6109d081610db2565b840191505092915050565b60006109e682610bb1565b6109f08185610bfc565b9350610a00818560208601610c5e565b80840191505092915050565b6000610a19602f83610beb565b9150610a2482610dc3565b604082019050919050565b6000610a3b82846109db565b915081905092915050565b6000602082019050610a5b60008301846108d6565b92915050565b60006020820190508181036000830152610a7b81846108e5565b905092915050565b6000602082019050610a98600083018461095a565b92915050565b60006020820190508181036000830152610ab881846109a2565b905092915050565b60006040820190508181036000830152610ada81856109a2565b9050610ae960208301846108d6565b9392505050565b60006040820190508181036000830152610b0a81856109a2565b9050610b19602083018461095a565b9392505050565b60006020820190508181036000830152610b3981610a0c565b9050919050565b6000610b4a610b5b565b9050610b568282610cc3565b919050565b6000604051905090565b600067ffffffffffffffff821115610b8057610b7f610d83565b5b610b8982610db2565b9050602081019050919050565b6000819050602082019050919050565b600081519050919050565b600081519050919050565b6000602082019050919050565b600082825260208201905092915050565b600082825260208201905092915050565b600082825260208201905092915050565b600081905092915050565b6000610c1282610c25565b9050919050565b60008115159050919050565b600073ffffffffffffffffffffffffffffffffffffffff82169050919050565b6000819050919050565b82818337600083830152505050565b60005b83811015610c7c578082015181840152602081019050610c61565b83811115610c8b576000848401525b50505050565b60006002820490506001821680610ca957607f821691505b60208210811415610cbd57610cbc610d54565b5b50919050565b610ccc82610db2565b810181811067ffffffffffffffff82111715610ceb57610cea610d83565b5b80604052505050565b6000610cff82610c45565b9150610d0a83610c45565b925082610d1a57610d19610d25565b5b828206905092915050565b7f4e487b7100000000000000000000000000000000000000000000000000000000600052601260045260246000fd5b7f4e487b7100000000000000000000000000000000000000000000000000000000600052602260045260246000fd5b7f4e487b7100000000000000000000000000000000000000000000000000000000600052604160045260246000fd5b6000601f19601f8301169050919050565b7f4e6f207469656e65207065726d69736f73207061726120656a6563757461722060008201527f65737461206f7065726163696f6e2e000000000000000000000000000000000060208201525056fea2646970667358221220045fd22ab885cbecfbaff0325b7e54b85b30cce387d258949bd1569e513c799c64736f6c634300080400334c612061646472657373206f776e65722064656c20636f6e747261746f2065733a20",
  "linkReferences": {},
  "deployedLinkReferences": {}
}